:100000000C942A000C943F000C943F000C943F0089
:100010000C943F000C943F000C943F000C943F0064
:100020000C943F000C943F000C943F000C943F0054
:100030000C943F000C943F000C943F000C943F0044
:100040000C943F000C943F000C943F000C943F0034
:100050000C943F0011241FBECFE5D8E0DEBFCDBF1A
:1000600010E0A0E6B0E0EEEBF7E002C005900D92E4
:10007000A03AB107D9F70E9453020C94DD030C9407
:10008000000080EC87B987E886B9089527B197B159
:10009000207E8F71822B982B97B986B1806486B9A8
:1000A000349BFECF86B1806186B924B185B190E0E2
:1000B000982F8827822B08959CE795BD83BD80E803
:1000C00088BF0895982F969596959695877091304C
:1000D00021F130F09230F1F1933009F458C00895D5
:1000E000613069F44BB321E030E0B90102C0660F22
:1000F000771F8A95E2F7CB01842B8BBB08954BB316
:1001000021E030E0B90102C0660F771F8A95E2F75F
:10011000CB01809584238BBB0895613069F448B38B
:1001200021E030E0B90102C0660F771F8A95E2F73F
:10013000CB01842B88BB089548B321E030E0B9019E
:1001400002C0660F771F8A95E2F7CB018095842362
:1001500088BB0895613069F445B321E030E0B9010E
:1001600002C0660F771F8A95E2F7CB01842B85BB0F
:10017000089545B321E030E0B90102C0660F771F52
:100180008A95E2F7CB018095842385BB0895613081
:1001900069F442B321E030E0B90102C0660F771F75
:1001A0008A95E2F7CB01842B82BB089542B321E00C
:1001B00030E0B90102C0660F771F8A95E2F7CB01E4
:1001C0008095842382BB089580E0A0C0982F9695E7
:1001D00096959695282F2770913061F138F09230DE
:1001E00009F44CC0933009F46DC08FC0E82FF0E0E3
:1001F000EE0FFF1FE05AFF4F9081913069F49AB3E0
:1002000041E050E0BA0102C0660F771F2A95E2F77D
:100210009B01292B2ABB79C09AB341E050E0BA0177
:1002200002C0660F771F2A95E2F79B0120952923CC
:100230002ABB6BC0E82FF0E0EE0FFF1FE05AFF4F24
:100240009081913069F497B341E050E0BA0102C067
:10025000660F771F2A95E2F79B01292B27BB55C014
:1002600097B341E050E0BA0102C0660F771F2A95AC
:10027000E2F79B012095292327BB47C0E82FF0E038
:10028000EE0FFF1FE05AFF4F9081913069F494B355
:1002900041E050E0BA0102C0660F771F2A95E2F7ED
:1002A0009B01292B24BB31C094B341E050E0BA013B
:1002B00002C0660F771F2A95E2F79B01209529233C
:1002C00024BB23C0E82FF0E0EE0FFF1FE05AFF4FE2
:1002D0009081913069F491B341E050E0BA0102C0DD
:1002E000660F771F2A95E2F79B01292B21BB0DC0D2
:1002F00091B341E050E0BA0102C0660F771F2A9522
:10030000E2F79B012095292321BB8F5F803208F4FF
:100310005DCF0895CF93C82F8BB38F709C2F907FA4
:10032000892B8BBB60E089E00E94620060E08BE07B
:100330000E9462008FE891E00197F1F700C0000091
:1003400061E08BE00E9462008FE19EE40197F1F78B
:1003500000C000002BB330E1C39FC0011124922FD5
:100360009F70892B8BBB60E089E00E94620060E097
:100370008BE00E9462008FE891E00197F1F700C0E6
:10038000000061E08BE00E9462008FE39FE1019733
:10039000F1F700C00000CF9108952FEF89EF90E0B2
:1003A000215080409040E1F700C0000060E08AE00A
:1003B0000E94620083E30E948A0187E592E0019730
:1003C000F1F700C0000082E30E948A0188E20E94E7
:1003D0008A0186E00E948A018CE00E948A0181E005
:1003E0000E948A018FE39FE10197F1F700C00000AE
:1003F0000895CF93C82F8BB38F709C2F907F892B3C
:100400008BBB61E089E00E94620060E08BE00E94AB
:1004100062008FE891E00197F1F700C0000061E011
:100420008BE00E9462008FE19EE40197F1F700C02B
:1004300000002BB330E1C39FC0011124922F9F70A5
:10044000892B8BBB61E089E00E94620060E08BE059
:100450000E9462008FE891E00197F1F700C0000070
:1004600061E08BE00E9462008FE39FE10197F1F76A
:1004700000C00000CF9108950F931F93CF938C017C
:10048000C0E003C00E94F901CF5FF801EC0FF11D3D
:1004900080818111F7CFCF911F910F91089581E055
:1004A0000E948A010895CF93DF93CDB7DEB7E4971A
:1004B0000FB6F894DEBF0FBECDBF0E94E4000E94CD
:1004C000CD010E9441000E940F0383B590E00E947D
:1004D0005C0081E089838A83CE0101960E94290312
:1004E000E12CF12C2FEF86E191E1215080409040EA
:1004F000E1F700C000000E944F0281E00E94460028
:100500008C01992314F40D5F1F4F159507951595D0
:1005100007954AE0BE016D5F7F4F802F912F0E94AB
:10052000A803CE0103960E943C02802F0E9448033C
:10053000182F873589F48AE083BD61E084E10E9449
:10054000620060E083E10E94620064EB70E080E0A2
:1005500090E00E94180317C022E3F21651F08FEFCB
:1005600083BD60E083E10E94620060E084E10E945C
:10057000620084E3E81639F060E070E0CB010E948D
:1005800018031BBC1ABC8EEC810F823008F4F12ECC
:100590008CEC810F823008F4E12E113329F461E0F4
:1005A00080E10E94620006C0103321F460E080E127
:1005B0000E94620092E3F9120BC08AE083BD61E001
:1005C00084E10E94620060E083E10E9462000FC04B
:1005D00023E3F2120CC0173551F08FEF83BD60E0BA
:1005E00083E10E94620060E084E10E94620084E393
:1005F000E81207C064EB70E080E090E00E9418030E
:1006000071CF95E3E9126ECF173509F46BCF60E037
:1006100070E0CB010E9418031BBC1ABC63CF82E8B8
:100620008FBD8BE18EBD87E893E197BD86BD0895B0
:100630009B01AC01AAEFB0E00E946C0324EB30E018
:1006400040E050E00E944D0327503F4F3BBD2ABD84
:100650000895FC018081882319F0813081F008958C
:1006600080E18DB98DB180648DB987B3806B87BB14
:1006700087B38F7B87BB88B3806188BB089587B3BE
:10068000806487BB87B38F7487BB80E48DB908957E
:100690008FB9779BFECF8FB10895052E97FB1EF47F
:1006A00000940E94640357FD07D00E94770307FC63
:1006B00003D04EF40C9464035095409530952195E9
:1006C0003F4F4F4F5F4F089590958095709561957E
:1006D0007F4F8F4F9F4F08950E949903A59F900DC4
:1006E000B49F900DA49F800D911D11240895A1E247
:1006F0001A2EAA1BBB1BFD010DC0AA1FBB1FEE1F9C
:10070000FF1FA217B307E407F50720F0A21BB30BE6
:10071000E40BF50B661F771F881F991F1A9469F762
:1007200060957095809590959B01AC01BD01CF01BE
:100730000895A29FB001B39FC001A39F700D811DBA
:100740001124911DB29F700D811D1124911D0895DA
:10075000BB274A3031F4992322F4BDE2909581956C
:100760009F4F0C94B403BB27FB015527AA27880F82
:10077000991FAA1FA41710F0A41B83955051B9F715
:10078000A05DAA3308F0A95DA193009779F7B11194
:10079000B1931192CB010C94CD03DC01FC01672FC6
:1007A00071917723E1F7329704C07C916D93708348
:0E07B0006291AE17BF07C8F30895F894FFCF0B
:1007BE00010100000101010101010101010101011D
:1007CE00010101010101010101010101010101010B
:1007DE0001010000010101010101010101010101FD
:1007EE0001010101000001010101010101010101ED
:00000001FF
